{
  "contractName": "ACTPOINTSMGMT",
  "abi": [
    {
      "inputs": [],
      "payable": false,
      "stateMutability": "nonpayable",
      "type": "constructor",
      "signature": "constructor"
    },
    {
      "constant": false,
      "inputs": [
        {
          "name": "_name",
          "type": "string"
        },
        {
          "name": "_email",
          "type": "string"
        },
        {
          "name": "_IDNo",
          "type": "string"
        },
        {
          "name": "_points",
          "type": "uint16"
        },
        {
          "name": "_diploma",
          "type": "bool"
        }
      ],
      "name": "addStudent",
      "outputs": [
        {
          "name": "",
          "type": "bool"
        }
      ],
      "payable": false,
      "stateMutability": "nonpayable",
      "type": "function",
      "signature": "0x88f97c70"
    },
    {
      "constant": true,
      "inputs": [
        {
          "name": "_email",
          "type": "string"
        }
      ],
      "name": "getStudentInfo",
      "outputs": [
        {
          "components": [
            {
              "name": "name",
              "type": "string"
            },
            {
              "name": "email",
              "type": "string"
            },
            {
              "name": "IDNo",
              "type": "string"
            },
            {
              "name": "points",
              "type": "uint16"
            },
            {
              "name": "diploma",
              "type": "bool"
            }
          ],
          "name": "",
          "type": "tuple"
        }
      ],
      "payable": false,
      "stateMutability": "view",
      "type": "function",
      "signature": "0x0a739dc4"
    },
    {
      "constant": false,
      "inputs": [
        {
          "name": "_email",
          "type": "string"
        },
        {
          "name": "_newPoints",
          "type": "uint16"
        }
      ],
      "name": "setStudentInfo",
      "outputs": [
        {
          "name": "",
          "type": "bool"
        }
      ],
      "payable": false,
      "stateMutability": "nonpayable",
      "type": "function",
      "signature": "0x36d37d5a"
    },
    {
      "constant": false,
      "inputs": [
        {
          "name": "_email",
          "type": "string"
        },
        {
          "name": "addPoints",
          "type": "uint16"
        }
      ],
      "name": "updateStudentInfo",
      "outputs": [],
      "payable": false,
      "stateMutability": "nonpayable",
      "type": "function",
      "signature": "0xeb2b8b7c"
    },
    {
      "constant": false,
      "inputs": [
        {
          "name": "newAdmin",
          "type": "address"
        }
      ],
      "name": "addAdmin",
      "outputs": [],
      "payable": false,
      "stateMutability": "nonpayable",
      "type": "function",
      "signature": "0x70480275"
    },
    {
      "constant": true,
      "inputs": [],
      "name": "test",
      "outputs": [
        {
          "name": "",
          "type": "address"
        }
      ],
      "payable": false,
      "stateMutability": "view",
      "type": "function",
      "signature": "0xf8a8fd6d"
    }
  ],
  "bytecode": "0x60806040523480156200001157600080fd5b5060a0604051908101604052806040805190810160405280600681526020017f41736877696e000000000000000000000000000000000000000000000000000081525081526020016040805190810160405280601c81526020017f61736877696e616a6f79642e6169323240727663652e6564752e696e0000000081525081526020016040805190810160405280600a81526020017f31525632324149303131000000000000000000000000000000000000000000008152508152602001602a61ffff168152602001600015158152506000806040805190810160405280601c81526020017f61736877696e616a6f79642e6169323240727663652e6564752e696e0000000081525080519060200120815260200190815260200160002060008201518160000190805190602001906200014d92919062000448565b5060208201518160010190805190602001906200016c92919062000448565b5060408201518160020190805190602001906200018b92919062000448565b5060608201518160030160006101000a81548161ffff021916908361ffff16021790555060808201518160030160026101000a81548160ff02191690831515021790555090505060033390806001815401808255809150509060018203906000526020600020016000909192909190916101000a81548173ffffffffffffffffffffffffffffffffffffffff021916908373ffffffffffffffffffffffffffffffffffffffff160217905550506003735b38da6a701c568545dcfcb03fcb875f56beddc490806001815401808255809150509060018203906000526020600020016000909192909190916101000a81548173ffffffffffffffffffffffffffffffffffffffff021916908373ffffffffffffffffffffffffffffffffffffffff16021790555050600373a2cad533b2913218264c550bb3de114a02a82c6890806001815401808255809150509060018203906000526020600020016000909192909190916101000a81548173ffffffffffffffffffffffffffffffffffffffff021916908373ffffffffffffffffffffffffffffffffffffffff1602179055505060037350cc436767d3667f43229dd63649fee400c383c790806001815401808255809150509060018203906000526020600020016000909192909190916101000a81548173ffffffffffffffffffffffffffffffffffffffff021916908373ffffffffffffffffffffffffffffffffffffffff16021790555050600373ab8483f64d9c6d1ecf9b849ae677dd3315835cb290806001815401808255809150509060018203906000526020600020016000909192909190916101000a81548173ffffffffffffffffffffffffffffffffffffffff021916908373ffffffffffffffffffffffffffffffffffffffff160217905550506005600460006101000a81548163ffffffff021916908363ffffffff160217905550620004f7565b828054600181600116156101000203166002900490600052602060002090601f016020900481019282601f106200048b57805160ff1916838001178555620004bc565b82800160010185558215620004bc579182015b82811115620004bb5782518255916020019190600101906200049e565b5b509050620004cb9190620004cf565b5090565b620004f491905b80821115620004f0576000816000905550600101620004d6565b5090565b90565b61103780620005076000396000f3fe608060405260043610610078576000357c0100000000000000000000000000000000000000000000000000000000900463ffffffff1680630a739dc41461007d57806336d37d5a146100ba57806370480275146100f757806388f97c7014610120578063eb2b8b7c1461015d578063f8a8fd6d14610186575b600080fd5b34801561008957600080fd5b506100a4600480360361009f9190810190610b98565b6101b1565b6040516100b19190610eac565b60405180910390f35b3480156100c657600080fd5b506100e160048036036100dc9190810190610c98565b61040c565b6040516100ee9190610e71565b60405180910390f35b34801561010357600080fd5b5061011e60048036036101199190810190610b6f565b610553565b005b34801561012c57600080fd5b5061014760048036036101429190810190610bd9565b6106ff565b6040516101549190610e71565b60405180910390f35b34801561016957600080fd5b50610184600480360361017f9190810190610c98565b6108a8565b005b34801561019257600080fd5b5061019b6109fa565b6040516101a89190610e56565b60405180910390f35b6101b9610a02565b60008060008480519060200120815260200190815260200160002090508060a06040519081016040529081600082018054600181600116156101000203166002900480601f01602080910402602001604051908101604052809291908181526020018280546001816001161561010002031660029004801561027c5780601f106102515761010080835404028352916020019161027c565b820191906000526020600020905b81548152906001019060200180831161025f57829003601f168201915b50505050508152602001600182018054600181600116156101000203166002900480601f01602080910402602001604051908101604052809291908181526020018280546001816001161561010002031660029004801561031e5780601f106102f35761010080835404028352916020019161031e565b820191906000526020600020905b81548152906001019060200180831161030157829003601f168201915b50505050508152602001600282018054600181600116156101000203166002900480601f0160208091040260200160405190810160405280929190818152602001828054600181600116156101000203166002900480156103c05780601f10610395576101008083540402835291602001916103c0565b820191906000526020600020905b8154815290600101906020018083116103a357829003601f168201915b505050505081526020016003820160009054906101000a900461ffff1661ffff1661ffff1681526020016003820160029054906101000a900460ff161515151581525050915050919050565b6000806000905060008090505b600460009054906101000a900463ffffffff1663ffffffff168163ffffffff1610156104c8573373ffffffffffffffffffffffffffffffffffffffff1660038263ffffffff1681548110151561046b57fe5b9060005260206000200160009054906101000a900473ffffffffffffffffffffffffffffffffffffffff1673ffffffffffffffffffffffffffffffffffffffff1614156104bb57600191506104c8565b8080600101915050610419565b5080151561050b576040517f08c379a000000000000000000000000000000000000000000000000000000000815260040161050290610e8c565b60405180910390fd5b6000806000868051906020012081526020019081526020016000209050838160030160006101000a81548161ffff021916908361ffff16021790555060019250505092915050565b600080905060008090505b600460009054906101000a900463ffffffff1663ffffffff168163ffffffff16101561060d573373ffffffffffffffffffffffffffffffffffffffff1660038263ffffffff168154811015156105b057fe5b9060005260206000200160009054906101000a900473ffffffffffffffffffffffffffffffffffffffff1673ffffffffffffffffffffffffffffffffffffffff161415610600576001915061060d565b808060010191505061055e565b50801515610650576040517f08c379a000000000000000000000000000000000000000000000000000000000815260040161064790610e8c565b60405180910390fd5b816003600460009054906101000a900463ffffffff1663ffffffff1681548110151561067857fe5b9060005260206000200160006101000a81548173ffffffffffffffffffffffffffffffffffffffff021916908373ffffffffffffffffffffffffffffffffffffffff1602179055506004600081819054906101000a900463ffffffff168092919060010191906101000a81548163ffffffff021916908363ffffffff160217905550505050565b600080600090505b600260009054906101000a900467ffffffffffffffff1667ffffffffffffffff168167ffffffffffffffff16101561078257858051906020012060018267ffffffffffffffff1681548110151561075a57fe5b9060005260206000200154141561077557600091505061089f565b8080600101915050610707565b5060a0604051908101604052808781526020018681526020018581526020018461ffff1681526020018315158152506000808780519060200120815260200190815260200160002060008201518160000190805190602001906107e6929190610a38565b506020820151816001019080519060200190610803929190610a38565b506040820151816002019080519060200190610820929190610a38565b5060608201518160030160006101000a81548161ffff021916908361ffff16021790555060808201518160030160026101000a81548160ff021916908315150217905550905050600185805190602001209080600181540180825580915050906001820390600052602060002001600090919290919091505550600190505b95945050505050565b600080905060008090505b600460009054906101000a900463ffffffff1663ffffffff168163ffffffff161015610962573373ffffffffffffffffffffffffffffffffffffffff1660038263ffffffff1681548110151561090557fe5b9060005260206000200160009054906101000a900473ffffffffffffffffffffffffffffffffffffffff1673ffffffffffffffffffffffffffffffffffffffff1614156109555760019150610962565b80806001019150506108b3565b508015156109a5576040517f08c379a000000000000000000000000000000000000000000000000000000000815260040161099c90610e8c565b60405180910390fd5b6000806000858051906020012081526020019081526020016000209050828160030160008282829054906101000a900461ffff160192506101000a81548161ffff021916908361ffff16021790555050505050565b600033905090565b60a060405190810160405280606081526020016060815260200160608152602001600061ffff1681526020016000151581525090565b828054600181600116156101000203166002900490600052602060002090601f016020900481019282601f10610a7957805160ff1916838001178555610aa7565b82800160010185558215610aa7579182015b82811115610aa6578251825591602001919060010190610a8b565b5b509050610ab49190610ab8565b5090565b610ada91905b80821115610ad6576000816000905550600101610abe565b5090565b90565b6000610ae98235610f7e565b905092915050565b6000610afd8235610f90565b905092915050565b600082601f8301121515610b1857600080fd5b8135610b2b610b2682610efb565b610ece565b91508082526020830160208301858383011115610b4757600080fd5b610b52838284610faa565b50505092915050565b6000610b678235610f9c565b905092915050565b600060208284031215610b8157600080fd5b6000610b8f84828501610add565b91505092915050565b600060208284031215610baa57600080fd5b600082013567ffffffffffffffff811115610bc457600080fd5b610bd084828501610b05565b91505092915050565b600080600080600060a08688031215610bf157600080fd5b600086013567ffffffffffffffff811115610c0b57600080fd5b610c1788828901610b05565b955050602086013567ffffffffffffffff811115610c3457600080fd5b610c4088828901610b05565b945050604086013567ffffffffffffffff811115610c5d57600080fd5b610c6988828901610b05565b9350506060610c7a88828901610b5b565b9250506080610c8b88828901610af1565b9150509295509295909350565b60008060408385031215610cab57600080fd5b600083013567ffffffffffffffff811115610cc557600080fd5b610cd185828601610b05565b9250506020610ce285828601610b5b565b9150509250929050565b610cf581610f32565b82525050565b610d0481610f44565b82525050565b6000610d1582610f27565b808452610d29816020860160208601610fb9565b610d3281610fec565b602085010191505092915050565b6000604b82527f596f7572206163636f756e74206973206e6f74206f6e207468652061646d696e60208301527f206c6973742e2043616e6e6f742075706461746520616374697669747920706f60408301527f696e742076616c7565730a0000000000000000000000000000000000000000006060830152608082019050919050565b600060a0830160008301518482036000860152610de08282610d0a565b91505060208301518482036020860152610dfa8282610d0a565b91505060408301518482036040860152610e148282610d0a565b9150506060830151610e296060860182610e47565b506080830151610e3c6080860182610cfb565b508091505092915050565b610e5081610f50565b82525050565b6000602082019050610e6b6000830184610cec565b92915050565b6000602082019050610e866000830184610cfb565b92915050565b60006020820190508181036000830152610ea581610d40565b9050919050565b60006020820190508181036000830152610ec68184610dc3565b905092915050565b6000604051905081810181811067ffffffffffffffff82111715610ef157600080fd5b8060405250919050565b600067ffffffffffffffff821115610f1257600080fd5b601f19601f8301169050602081019050919050565b600081519050919050565b6000610f3d82610f5e565b9050919050565b60008115159050919050565b600061ffff82169050919050565b600073ffffffffffffffffffffffffffffffffffffffff82169050919050565b6000610f8982610f5e565b9050919050565b60008115159050919050565b600061ffff82169050919050565b82818337600083830152505050565b60005b83811015610fd7578082015181840152602081019050610fbc565b83811115610fe6576000848401525b50505050565b6000601f19601f830116905091905056fea265627a7a7230582049a873ab2c49d7416f0577ea5d6362b7dc10010d161d544f55c6490d853f404e6c6578706572696d656e74616cf50037",
  "source": "// SPDX-License-Identifier: MIT\r\n\r\npragma solidity 0.5.0;\r\npragma experimental ABIEncoderV2;\r\n\r\ncontract ACTPOINTSMGMT {\r\n    struct Student {\r\n        string name;\r\n        string email;\r\n        string IDNo;\r\n        uint16 points;\r\n        bool diploma;\r\n    }\r\n\r\n    mapping (bytes32 => Student) studentPoints;\r\n\r\n    bytes32 [] emails;\r\n    uint64 numEmails;\r\n\r\n    address [] admins;\r\n    uint32 numAdmins;\r\n\r\n    modifier requireAdmin {\r\n        bool yes = false;\r\n        for (uint32 i = 0; i < numAdmins; i++) {\r\n            if (admins[i] == msg.sender) {\r\n                yes = true;\r\n                break;\r\n            }\r\n        }\r\n        require(yes, \"Your account is not on the admin list. Cannot update activity point values\\n\");\r\n        _;\r\n    }\r\n\r\n    constructor () public {\r\n        studentPoints[keccak256(bytes(\"ashwinajoyd.ai22@rvce.edu.in\"))] = Student(\"Ashwin\", \"ashwinajoyd.ai22@rvce.edu.in\", \"1RV22AI011\", 42, false);\r\n        admins.push(msg.sender);\r\n        admins.push(address(0x5B38Da6a701c568545dCfcB03FcB875f56beddC4));\r\n        admins.push(address(0xa2caD533b2913218264C550BB3de114a02a82c68)); // Ganache thing\r\n        admins.push(address(0x50cc436767d3667F43229dD63649FEe400C383c7)); // Ganache thing 2\r\n        admins.push(address(0xAb8483F64d9C6d1EcF9b849Ae677dD3315835cb2));\r\n        numAdmins = 5;\r\n    }\r\n\r\n    function addStudent (\r\n        string memory _name, \r\n        string memory _email,\r\n        string memory _IDNo,\r\n        uint16 _points,\r\n        bool _diploma) \r\n        public returns (bool) {\r\n            for (uint64 i = 0; i < numEmails; i++) {\r\n                if (emails[i] == keccak256(bytes(_email))) return false;\r\n            }\r\n            studentPoints[keccak256(bytes(_email))] = Student(_name, _email, _IDNo, _points, _diploma);\r\n            emails.push(keccak256(bytes(_email)));\r\n            return true;\r\n    }\r\n\r\n    function getStudentInfo (string memory _email) public view returns (Student memory) {\r\n        Student storage stu = studentPoints[keccak256(bytes(_email))];\r\n        return (stu);\r\n    }\r\n\r\n    function setStudentInfo(string memory _email, uint16 _newPoints) public requireAdmin returns (bool) {\r\n        Student storage stu = studentPoints[keccak256(bytes(_email))];\r\n        stu.points = _newPoints;\r\n        return true;\r\n    }\r\n\r\n    function updateStudentInfo(string memory _email, uint16 addPoints) public requireAdmin {\r\n        Student storage stu = studentPoints[keccak256(bytes(_email))];\r\n        stu.points += addPoints;\r\n    }\r\n\r\n   function addAdmin (address newAdmin) public requireAdmin {\r\n        admins[numAdmins] = newAdmin;\r\n        numAdmins++;\r\n   }\r\n\r\n   function test () public view  returns (address) {\r\n        return msg.sender;\r\n   }\r\n}   ",
  "sourcePath": "C:/xampp/htdocs/Hack4soc.frontend/starter_kit - Copy/starter_kit - Copy/src/contracts/Act.sol",
  "compiler": {
    "name": "solc",
    "version": "0.5.0+commit.1d4f565a.Emscripten.clang"
  },
  "schemaVersion": "3.0.1",
  "updatedAt": "2024-02-03T21:15:53.232Z",
  "devdoc": {
    "methods": {}
  },
  "userdoc": {
    "methods": {}
  }
}