{
  "_format": "hh-sol-artifact-1",
  "contractName": "Complain",
  "sourceName": "contracts/Complain.sol",
  "abi": [
    {
      "anonymous": false,
      "inputs": [
        {
          "indexed": true,
          "internalType": "uint256",
          "name": "amount",
          "type": "uint256"
        }
      ],
      "name": "EtherReceived",
      "type": "event"
    },
    {
      "stateMutability": "payable",
      "type": "fallback"
    },
    {
      "inputs": [
        {
          "internalType": "uint256",
          "name": "",
          "type": "uint256"
        }
      ],
      "name": "Complains",
      "outputs": [
        {
          "internalType": "string",
          "name": "name",
          "type": "string"
        },
        {
          "internalType": "string",
          "name": "complainAddress",
          "type": "string"
        },
        {
          "internalType": "string",
          "name": "complain",
          "type": "string"
        },
        {
          "internalType": "string",
          "name": "phone",
          "type": "string"
        },
        {
          "internalType": "string",
          "name": "status",
          "type": "string"
        },
        {
          "internalType": "string",
          "name": "report",
          "type": "string"
        }
      ],
      "stateMutability": "view",
      "type": "function"
    },
    {
      "inputs": [
        {
          "internalType": "string",
          "name": "_name",
          "type": "string"
        },
        {
          "internalType": "string",
          "name": "_address",
          "type": "string"
        },
        {
          "internalType": "string",
          "name": "_complain",
          "type": "string"
        },
        {
          "internalType": "string",
          "name": "phone",
          "type": "string"
        }
      ],
      "name": "addComplains",
      "outputs": [],
      "stateMutability": "nonpayable",
      "type": "function"
    },
    {
      "inputs": [
        {
          "internalType": "string",
          "name": "_report",
          "type": "string"
        },
        {
          "internalType": "string",
          "name": "_phone",
          "type": "string"
        }
      ],
      "name": "addReport",
      "outputs": [],
      "stateMutability": "nonpayable",
      "type": "function"
    },
    {
      "inputs": [
        {
          "internalType": "string",
          "name": "_status",
          "type": "string"
        },
        {
          "internalType": "string",
          "name": "_phone",
          "type": "string"
        }
      ],
      "name": "addStatus",
      "outputs": [],
      "stateMutability": "nonpayable",
      "type": "function"
    },
    {
      "inputs": [],
      "name": "getPhoneComplaints",
      "outputs": [
        {
          "components": [
            {
              "internalType": "string",
              "name": "name",
              "type": "string"
            },
            {
              "internalType": "string",
              "name": "complainAddress",
              "type": "string"
            },
            {
              "internalType": "string",
              "name": "complain",
              "type": "string"
            },
            {
              "internalType": "string",
              "name": "phone",
              "type": "string"
            },
            {
              "internalType": "string",
              "name": "status",
              "type": "string"
            },
            {
              "internalType": "string",
              "name": "report",
              "type": "string"
            }
          ],
          "internalType": "struct Complain.ComplainDetails[]",
          "name": "",
          "type": "tuple[]"
        }
      ],
      "stateMutability": "view",
      "type": "function"
    },
    {
      "stateMutability": "payable",
      "type": "receive"
    }
  ],
  "bytecode": "0x608060405234801561001057600080fd5b50611546806100206000396000f3fe60806040526004361061004e5760003560e01c806349d9bf59146100b15780637a3e0066146100da5780637cfa762c1461010357806387c33e2414610145578063bc0c8f731461016e57610082565b3661008257347f0a34e3d4f1e6b837dbce1011b61499fa1a483a0abee6a7a6697660b4b2d9713260405160405180910390a2005b347f0a34e3d4f1e6b837dbce1011b61499fa1a483a0abee6a7a6697660b4b2d9713260405160405180910390a2005b3480156100bd57600080fd5b506100d860048036038101906100d39190610c1b565b610199565b005b3480156100e657600080fd5b5061010160048036038101906100fc9190610c1b565b6101e6565b005b34801561010f57600080fd5b5061012a60048036038101906101259190610cc9565b610233565b60405161013c96959493929190610d75565b60405180910390f35b34801561015157600080fd5b5061016c60048036038101906101679190610e00565b6105af565b005b34801561017a57600080fd5b5061018361063d565b604051610190919061108f565b60405180910390f35b60006101a482610a08565b90506000808260ff16815481106101be576101bd6110b1565b5b90600052602060002090600602019050838160040190816101df91906112ec565b5050505050565b60006101f182610a08565b90506000808260ff168154811061020b5761020a6110b1565b5b906000526020600020906006020190508381600501908161022c91906112ec565b5050505050565b6000818154811061024357600080fd5b90600052602060002090600602016000915090508060000180546102669061110f565b80601f01602080910402602001604051908101604052809291908181526020018280546102929061110f565b80156102df5780601f106102b4576101008083540402835291602001916102df565b820191906000526020600020905b8154815290600101906020018083116102c257829003601f168201915b5050505050908060010180546102f49061110f565b80601f01602080910402602001604051908101604052809291908181526020018280546103209061110f565b801561036d5780601f106103425761010080835404028352916020019161036d565b820191906000526020600020905b81548152906001019060200180831161035057829003601f168201915b5050505050908060020180546103829061110f565b80601f01602080910402602001604051908101604052809291908181526020018280546103ae9061110f565b80156103fb5780601f106103d0576101008083540402835291602001916103fb565b820191906000526020600020905b8154815290600101906020018083116103de57829003601f168201915b5050505050908060030180546104109061110f565b80601f016020809104026020016040519081016040528092919081815260200182805461043c9061110f565b80156104895780601f1061045e57610100808354040283529160200191610489565b820191906000526020600020905b81548152906001019060200180831161046c57829003601f168201915b50505050509080600401805461049e9061110f565b80601f01602080910402602001604051908101604052809291908181526020018280546104ca9061110f565b80156105175780601f106104ec57610100808354040283529160200191610517565b820191906000526020600020905b8154815290600101906020018083116104fa57829003601f168201915b50505050509080600501805461052c9061110f565b80601f01602080910402602001604051908101604052809291908181526020018280546105589061110f565b80156105a55780601f1061057a576101008083540402835291602001916105a5565b820191906000526020600020905b81548152906001019060200180831161058857829003601f168201915b5050505050905086565b6000806001816001815401808255809150500390600052602060002090600602019050848484848460000160008660010160008860020160008a60030160008891905090816105fe91906112ec565b5087919050908161060f91906112ec565b5086919050908161062091906112ec565b5085919050908161063191906112ec565b50505050505050505050565b60606000805480602002602001604051908101604052809291908181526020016000905b828210156109ff57838290600052602060002090600602016040518060c00160405290816000820180546106949061110f565b80601f01602080910402602001604051908101604052809291908181526020018280546106c09061110f565b801561070d5780601f106106e25761010080835404028352916020019161070d565b820191906000526020600020905b8154815290600101906020018083116106f057829003601f168201915b505050505081526020016001820180546107269061110f565b80601f01602080910402602001604051908101604052809291908181526020018280546107529061110f565b801561079f5780601f106107745761010080835404028352916020019161079f565b820191906000526020600020905b81548152906001019060200180831161078257829003601f168201915b505050505081526020016002820180546107b89061110f565b80601f01602080910402602001604051908101604052809291908181526020018280546107e49061110f565b80156108315780601f1061080657610100808354040283529160200191610831565b820191906000526020600020905b81548152906001019060200180831161081457829003601f168201915b5050505050815260200160038201805461084a9061110f565b80601f01602080910402602001604051908101604052809291908181526020018280546108769061110f565b80156108c35780601f10610898576101008083540402835291602001916108c3565b820191906000526020600020905b8154815290600101906020018083116108a657829003601f168201915b505050505081526020016004820180546108dc9061110f565b80601f01602080910402602001604051908101604052809291908181526020018280546109089061110f565b80156109555780601f1061092a57610100808354040283529160200191610955565b820191906000526020600020905b81548152906001019060200180831161093857829003601f168201915b5050505050815260200160058201805461096e9061110f565b80601f016020809104026020016040519081016040528092919081815260200182805461099a9061110f565b80156109e75780601f106109bc576101008083540402835291602001916109e7565b820191906000526020600020905b8154815290600101906020018083116109ca57829003601f168201915b50505050508152505081526020019060010190610661565b50505050905090565b600080600090505b6000805490508160ff161015610ab65782604051602001610a3191906113fa565b6040516020818303038152906040528051906020012060008260ff1681548110610a5e57610a5d6110b1565b5b9060005260206000209060060201600301604051602001610a7f9190611494565b6040516020818303038152906040528051906020012003610aa35780915050610abc565b8080610aae906114e7565b915050610a10565b50600090505b919050565b6000604051905090565b600080fd5b600080fd5b600080fd5b600080fd5b6000601f19601f8301169050919050565b7f4e487b7100000000000000000000000000000000000000000000000000000000600052604160045260246000fd5b610b2882610adf565b810181811067ffffffffffffffff82111715610b4757610b46610af0565b5b80604052505050565b6000610b5a610ac1565b9050610b668282610b1f565b919050565b600067ffffffffffffffff821115610b8657610b85610af0565b5b610b8f82610adf565b9050602081019050919050565b82818337600083830152505050565b6000610bbe610bb984610b6b565b610b50565b905082815260208101848484011115610bda57610bd9610ada565b5b610be5848285610b9c565b509392505050565b600082601f830112610c0257610c01610ad5565b5b8135610c12848260208601610bab565b91505092915050565b60008060408385031215610c3257610c31610acb565b5b600083013567ffffffffffffffff811115610c5057610c4f610ad0565b5b610c5c85828601610bed565b925050602083013567ffffffffffffffff811115610c7d57610c7c610ad0565b5b610c8985828601610bed565b9150509250929050565b6000819050919050565b610ca681610c93565b8114610cb157600080fd5b50565b600081359050610cc381610c9d565b92915050565b600060208284031215610cdf57610cde610acb565b5b6000610ced84828501610cb4565b91505092915050565b600081519050919050565b600082825260208201905092915050565b60005b83811015610d30578082015181840152602081019050610d15565b60008484015250505050565b6000610d4782610cf6565b610d518185610d01565b9350610d61818560208601610d12565b610d6a81610adf565b840191505092915050565b600060c0820190508181036000830152610d8f8189610d3c565b90508181036020830152610da38188610d3c565b90508181036040830152610db78187610d3c565b90508181036060830152610dcb8186610d3c565b90508181036080830152610ddf8185610d3c565b905081810360a0830152610df38184610d3c565b9050979650505050505050565b60008060008060808587031215610e1a57610e19610acb565b5b600085013567ffffffffffffffff811115610e3857610e37610ad0565b5b610e4487828801610bed565b945050602085013567ffffffffffffffff811115610e6557610e64610ad0565b5b610e7187828801610bed565b935050604085013567ffffffffffffffff811115610e9257610e91610ad0565b5b610e9e87828801610bed565b925050606085013567ffffffffffffffff811115610ebf57610ebe610ad0565b5b610ecb87828801610bed565b91505092959194509250565b600081519050919050565b600082825260208201905092915050565b6000819050602082019050919050565b600082825260208201905092915050565b6000610f1f82610cf6565b610f298185610f03565b9350610f39818560208601610d12565b610f4281610adf565b840191505092915050565b600060c0830160008301518482036000860152610f6a8282610f14565b91505060208301518482036020860152610f848282610f14565b91505060408301518482036040860152610f9e8282610f14565b91505060608301518482036060860152610fb88282610f14565b91505060808301518482036080860152610fd28282610f14565b91505060a083015184820360a0860152610fec8282610f14565b9150508091505092915050565b60006110058383610f4d565b905092915050565b6000602082019050919050565b600061102582610ed7565b61102f8185610ee2565b93508360208202850161104185610ef3565b8060005b8581101561107d578484038952815161105e8582610ff9565b94506110698361100d565b925060208a01995050600181019050611045565b50829750879550505050505092915050565b600060208201905081810360008301526110a9818461101a565b905092915050565b7f4e487b7100000000000000000000000000000000000000000000000000000000600052603260045260246000fd5b7f4e487b7100000000000000000000000000000000000000000000000000000000600052602260045260246000fd5b6000600282049050600182168061112757607f821691505b60208210810361113a576111396110e0565b5b50919050565b60008190508160005260206000209050919050565b60006020601f8301049050919050565b600082821b905092915050565b6000600883026111a27fffffffffffffffffffffffffffffffffffffffffffffffffffffffffffffffff82611165565b6111ac8683611165565b95508019841693508086168417925050509392505050565b6000819050919050565b60006111e96111e46111df84610c93565b6111c4565b610c93565b9050919050565b6000819050919050565b611203836111ce565b61121761120f826111f0565b848454611172565b825550505050565b600090565b61122c61121f565b6112378184846111fa565b505050565b5b8181101561125b57611250600082611224565b60018101905061123d565b5050565b601f8211156112a05761127181611140565b61127a84611155565b81016020851015611289578190505b61129d61129585611155565b83018261123c565b50505b505050565b600082821c905092915050565b60006112c3600019846008026112a5565b1980831691505092915050565b60006112dc83836112b2565b9150826002028217905092915050565b6112f582610cf6565b67ffffffffffffffff81111561130e5761130d610af0565b5b611318825461110f565b61132382828561125f565b600060209050601f8311600181146113565760008415611344578287015190505b61134e85826112d0565b8655506113b6565b601f19841661136486611140565b60005b8281101561138c57848901518255600182019150602085019450602081019050611367565b868310156113a957848901516113a5601f8916826112b2565b8355505b6001600288020188555050505b505050505050565b600081905092915050565b60006113d482610cf6565b6113de81856113be565b93506113ee818560208601610d12565b80840191505092915050565b600061140682846113c9565b915081905092915050565b6000815461141e8161110f565b61142881866113be565b9450600182166000811461144357600181146114585761148b565b60ff198316865281151582028601935061148b565b61146185611140565b60005b8381101561148357815481890152600182019150602081019050611464565b838801955050505b50505092915050565b60006114a08284611411565b915081905092915050565b7f4e487b7100000000000000000000000000000000000000000000000000000000600052601160045260246000fd5b600060ff82169050919050565b60006114f2826114da565b915060ff8203611505576115046114ab565b5b60018201905091905056fea2646970667358221220fc8b78dd0d1133a3b488d4636d10da0ed556b251c399c5df2376c64ec3c834c864736f6c63430008130033",
  "linkReferences": {},
  "deployedLinkReferences": {}
}